{
  "contractName": "ProductManager",
  "abi": [
    {
      "anonymous": false,
      "inputs": [
        {
          "indexed": true,
          "internalType": "address",
          "name": "previousOwner",
          "type": "address"
        },
        {
          "indexed": true,
          "internalType": "address",
          "name": "newOwner",
          "type": "address"
        }
      ],
      "name": "OwnershipTransferred",
      "type": "event"
    },
    {
      "anonymous": false,
      "inputs": [
        {
          "indexed": false,
          "internalType": "uint256",
          "name": "_productIndex",
          "type": "uint256"
        },
        {
          "indexed": false,
          "internalType": "uint256",
          "name": "_step",
          "type": "uint256"
        },
        {
          "indexed": false,
          "internalType": "address",
          "name": "productPaymentAddress",
          "type": "address"
        }
      ],
      "name": "ProductStateChanged",
      "type": "event"
    },
    {
      "inputs": [],
      "name": "index",
      "outputs": [
        {
          "internalType": "uint256",
          "name": "",
          "type": "uint256"
        }
      ],
      "stateMutability": "view",
      "type": "function",
      "constant": true
    },
    {
      "inputs": [],
      "name": "owner",
      "outputs": [
        {
          "internalType": "address",
          "name": "",
          "type": "address"
        }
      ],
      "stateMutability": "view",
      "type": "function",
      "constant": true
    },
    {
      "inputs": [
        {
          "internalType": "uint256",
          "name": "",
          "type": "uint256"
        }
      ],
      "name": "products",
      "outputs": [
        {
          "internalType": "string",
          "name": "productUid",
          "type": "string"
        },
        {
          "internalType": "uint256",
          "name": "price",
          "type": "uint256"
        },
        {
          "internalType": "enum ProductManager.ProductState",
          "name": "state",
          "type": "uint8"
        },
        {
          "internalType": "contract ProductPaymentHanler",
          "name": "paymentHandler",
          "type": "address"
        }
      ],
      "stateMutability": "view",
      "type": "function",
      "constant": true
    },
    {
      "inputs": [
        {
          "internalType": "address",
          "name": "newOwner",
          "type": "address"
        }
      ],
      "name": "transferOwnership",
      "outputs": [],
      "stateMutability": "nonpayable",
      "type": "function"
    },
    {
      "inputs": [
        {
          "internalType": "string",
          "name": "_id",
          "type": "string"
        },
        {
          "internalType": "uint256",
          "name": "_price",
          "type": "uint256"
        }
      ],
      "name": "createProduct",
      "outputs": [],
      "stateMutability": "nonpayable",
      "type": "function"
    },
    {
      "inputs": [
        {
          "internalType": "uint256",
          "name": "_productIndex",
          "type": "uint256"
        }
      ],
      "name": "triggerPayment",
      "outputs": [],
      "stateMutability": "payable",
      "type": "function",
      "payable": true
    },
    {
      "inputs": [
        {
          "internalType": "uint256",
          "name": "_productIndex",
          "type": "uint256"
        }
      ],
      "name": "triggerDelivery",
      "outputs": [],
      "stateMutability": "nonpayable",
      "type": "function"
    },
    {
      "inputs": [],
      "name": "withdraw",
      "outputs": [],
      "stateMutability": "nonpayable",
      "type": "function"
    },
    {
      "inputs": [],
      "name": "renounceOwnership",
      "outputs": [],
      "stateMutability": "nonpayable",
      "type": "function"
    }
  ],
  "bytecode": "0x608060405260006100146100b760201b60201c565b9050806000806101000a81548173ffffffffffffffffffffffffffffffffffffffff021916908373ffffffffffffffffffffffffffffffffffffffff1602179055508073ffffffffffffffffffffffffffffffffffffffff16600073ffffffffffffffffffffffffffffffffffffffff167f8be0079c531659141344cd1fd0a4f28419497f9722a3daafe3b4186f6b6457e060405160405180910390a3506100bf565b600033905090565b611801806100ce6000396000f3fe6080604052600436106100865760003560e01c8063800fb83f11610059578063800fb83f146101e75780638da5cb5b14610215578063cd31831e1461026c578063e9300c6c146102a7578063f2fde38b1461037957610086565b80632986c0e51461008b5780633ccfd60b146100b6578063715018a6146100cd5780637acc0b20146100e4575b600080fd5b34801561009757600080fd5b506100a06103ca565b6040518082815260200191505060405180910390f35b3480156100c257600080fd5b506100cb6103d0565b005b3480156100d957600080fd5b506100e26104e2565b005b3480156100f057600080fd5b5061011d6004803603602081101561010757600080fd5b81019080803590602001909291905050506105fc565b604051808060200185815260200184600281111561013757fe5b60ff1681526020018373ffffffffffffffffffffffffffffffffffffffff1673ffffffffffffffffffffffffffffffffffffffff168152602001828103825286818151815260200191508051906020019080838360005b838110156101a957808201518184015260208101905061018e565b50505050905090810190601f1680156101d65780820380516001836020036101000a031916815260200191505b509550505050505060405180910390f35b610213600480360360208110156101fd57600080fd5b81019080803590602001909291905050506106f1565b005b34801561022157600080fd5b5061022a610903565b604051808273ffffffffffffffffffffffffffffffffffffffff1673ffffffffffffffffffffffffffffffffffffffff16815260200191505060405180910390f35b34801561027857600080fd5b506102a56004803603602081101561028f57600080fd5b810190808035906020019092919050505061092c565b005b3480156102b357600080fd5b50610377600480360360408110156102ca57600080fd5b81019080803590602001906401000000008111156102e757600080fd5b8201836020820111156102f957600080fd5b8035906020019184600183028401116401000000008311171561031b57600080fd5b91908080601f016020809104026020016040519081016040528093929190818152602001838380828437600081840152601f19601f82011690508083019250505050505050919291929080359060200190929190505050610b99565b005b34801561038557600080fd5b506103c86004803603602081101561039c57600080fd5b81019080803573ffffffffffffffffffffffffffffffffffffffff169060200190929190505050610ea7565b005b60025481565b6103d86110b4565b73ffffffffffffffffffffffffffffffffffffffff166000809054906101000a900473ffffffffffffffffffffffffffffffffffffffff1673ffffffffffffffffffffffffffffffffffffffff1614610499576040517f08c379a00000000000000000000000000000000000000000000000000000000081526004018080602001828103825260208152602001807f4f776e61626c653a2063616c6c6572206973206e6f7420746865206f776e657281525060200191505060405180910390fd5b3373ffffffffffffffffffffffffffffffffffffffff166108fc479081150290604051600060405180830381858888f193505050501580156104df573d6000803e3d6000fd5b50565b6104ea6110b4565b73ffffffffffffffffffffffffffffffffffffffff166000809054906101000a900473ffffffffffffffffffffffffffffffffffffffff1673ffffffffffffffffffffffffffffffffffffffff16146105ab576040517f08c379a00000000000000000000000000000000000000000000000000000000081526004018080602001828103825260208152602001807f4f776e61626c653a2063616c6c6572206973206e6f7420746865206f776e657281525060200191505060405180910390fd5b6040517f08c379a00000000000000000000000000000000000000000000000000000000081526004018080602001828103825260258152602001806117a76025913960400191505060405180910390fd5b6001602052806000526040600020600091509050806000018054600181600116156101000203166002900480601f0160208091040260200160405190810160405280929190818152602001828054600181600116156101000203166002900480156106a85780601f1061067d576101008083540402835291602001916106a8565b820191906000526020600020905b81548152906001019060200180831161068b57829003601f168201915b5050505050908060010154908060020160009054906101000a900460ff16908060020160019054906101000a900473ffffffffffffffffffffffffffffffffffffffff16905084565b3460016000838152602001908152602001600020600101541115610760576040517f08c379a000000000000000000000000000000000000000000000000000000000815260040180806020018281038252602d81526020018061177a602d913960400191505060405180910390fd5b6000600281111561076d57fe5b6001600083815260200190815260200160002060020160009054906101000a900460ff16600281111561079c57fe5b146107f2576040517f08c379a000000000000000000000000000000000000000000000000000000000815260040180806020018281038252604d81526020018061172d604d913960600191505060405180910390fd5b600180600083815260200190815260200160002060020160006101000a81548160ff0219169083600281111561082457fe5b02179055507fa04c3ac61bf2138ed180c33d5711935e6e6e9100b7312b3bbe5ee8ab7536a669816001600084815260200190815260200160002060020160009054906101000a900460ff16600281111561087a57fe5b6001600085815260200190815260200160002060020160019054906101000a900473ffffffffffffffffffffffffffffffffffffffff16604051808481526020018381526020018273ffffffffffffffffffffffffffffffffffffffff1673ffffffffffffffffffffffffffffffffffffffff168152602001935050505060405180910390a150565b60008060009054906101000a900473ffffffffffffffffffffffffffffffffffffffff16905090565b6109346110b4565b73ffffffffffffffffffffffffffffffffffffffff166000809054906101000a900473ffffffffffffffffffffffffffffffffffffffff1673ffffffffffffffffffffffffffffffffffffffff16146109f5576040517f08c379a00000000000000000000000000000000000000000000000000000000081526004018080602001828103825260208152602001807f4f776e61626c653a2063616c6c6572206973206e6f7420746865206f776e657281525060200191505060405180910390fd5b60016002811115610a0257fe5b6001600083815260200190815260200160002060020160009054906101000a900460ff166002811115610a3157fe5b14610a87576040517f08c379a00000000000000000000000000000000000000000000000000000000081526004018080602001828103825260338152602001806116d46033913960400191505060405180910390fd5b60026001600083815260200190815260200160002060020160006101000a81548160ff02191690836002811115610aba57fe5b02179055507fa04c3ac61bf2138ed180c33d5711935e6e6e9100b7312b3bbe5ee8ab7536a669816001600084815260200190815260200160002060020160009054906101000a900460ff166002811115610b1057fe5b6001600085815260200190815260200160002060020160019054906101000a900473ffffffffffffffffffffffffffffffffffffffff16604051808481526020018381526020018273ffffffffffffffffffffffffffffffffffffffff1673ffffffffffffffffffffffffffffffffffffffff168152602001935050505060405180910390a150565b610ba16110b4565b73ffffffffffffffffffffffffffffffffffffffff166000809054906101000a900473ffffffffffffffffffffffffffffffffffffffff1673ffffffffffffffffffffffffffffffffffffffff1614610c62576040517f08c379a00000000000000000000000000000000000000000000000000000000081526004018080602001828103825260208152602001807f4f776e61626c653a2063616c6c6572206973206e6f7420746865206f776e657281525060200191505060405180910390fd5b60003060025483604051610c75906110bc565b808473ffffffffffffffffffffffffffffffffffffffff1673ffffffffffffffffffffffffffffffffffffffff1681526020018381526020018281526020019350505050604051809103906000f080158015610cd5573d6000803e3d6000fd5b5090508060016000600254815260200190815260200160002060020160016101000a81548173ffffffffffffffffffffffffffffffffffffffff021916908373ffffffffffffffffffffffffffffffffffffffff160217905550826001600060025481526020019081526020016000206000019080519060200190610d5b9291906110c9565b508160016000600254815260200190815260200160002060010181905550600060016000600254815260200190815260200160002060020160006101000a81548160ff02191690836002811115610dae57fe5b02179055507fa04c3ac61bf2138ed180c33d5711935e6e6e9100b7312b3bbe5ee8ab7536a66960025460016000600254815260200190815260200160002060020160009054906101000a900460ff166002811115610e0857fe5b60016000600254815260200190815260200160002060020160019054906101000a900473ffffffffffffffffffffffffffffffffffffffff16604051808481526020018381526020018273ffffffffffffffffffffffffffffffffffffffff1673ffffffffffffffffffffffffffffffffffffffff168152602001935050505060405180910390a1600260008154809291906001019190505550505050565b610eaf6110b4565b73ffffffffffffffffffffffffffffffffffffffff166000809054906101000a900473ffffffffffffffffffffffffffffffffffffffff1673ffffffffffffffffffffffffffffffffffffffff1614610f70576040517f08c379a00000000000000000000000000000000000000000000000000000000081526004018080602001828103825260208152602001807f4f776e61626c653a2063616c6c6572206973206e6f7420746865206f776e657281525060200191505060405180910390fd5b600073ffffffffffffffffffffffffffffffffffffffff168173ffffffffffffffffffffffffffffffffffffffff161415610ff6576040517f08c379a00000000000000000000000000000000000000000000000000000000081526004018080602001828103825260268152602001806117076026913960400191505060405180910390fd5b8073ffffffffffffffffffffffffffffffffffffffff166000809054906101000a900473ffffffffffffffffffffffffffffffffffffffff1673ffffffffffffffffffffffffffffffffffffffff167f8be0079c531659141344cd1fd0a4f28419497f9722a3daafe3b4186f6b6457e060405160405180910390a3806000806101000a81548173ffffffffffffffffffffffffffffffffffffffff021916908373ffffffffffffffffffffffffffffffffffffffff16021790555050565b600033905090565b6105658061116f83390190565b828054600181600116156101000203166002900490600052602060002090601f016020900481019282601f1061110a57805160ff1916838001178555611138565b82800160010185558215611138579182015b8281111561113757825182559160200191906001019061111c565b5b5090506111459190611149565b5090565b61116b91905b8082111561116757600081600090555060010161114f565b5090565b9056fe608060405234801561001057600080fd5b506040516105653803806105658339818101604052606081101561003357600080fd5b8101908080519060200190929190805190602001909291908051906020019092919050505082600260016101000a81548173ffffffffffffffffffffffffffffffffffffffff021916908373ffffffffffffffffffffffffffffffffffffffff16021790555081600181905550806000819055505050506104ac806100b96000396000f3fe6080604052600436106100435760003560e01c8063230b9da3146103255780632986c0e51461037c578063a035b1fe146103a7578063c25fffa5146103d257610320565b3661032057600260009054906101000a900460ff16156100cb576040517f08c379a00000000000000000000000000000000000000000000000000000000081526004018080602001828103825260188152602001807f50726f6475637420697320616c726561647920706169642e000000000000000081525060200191505060405180910390fd5b6000543414610125576040517f08c379a00000000000000000000000000000000000000000000000000000000081526004018080602001828103825260308152602001806104476030913960400191505060405180910390fd5b6000600260019054906101000a900473ffffffffffffffffffffffffffffffffffffffff1673ffffffffffffffffffffffffffffffffffffffff1634600154604051602401808281526020019150506040516020818303038152906040527f800fb83f000000000000000000000000000000000000000000000000000000007bffffffffffffffffffffffffffffffffffffffffffffffffffffffff19166020820180517bffffffffffffffffffffffffffffffffffffffffffffffffffffffff83818316178352505050506040518082805190602001908083835b602083106102245780518252602082019150602081019050602083039250610201565b6001836020036101000a03801982511681845116808217855250505050505090500191505060006040518083038185875af1925050503d8060008114610286576040519150601f19603f3d011682016040523d82523d6000602084013e61028b565b606091505b5050905080610302576040517f08c379a000000000000000000000000000000000000000000000000000000000815260040180806020018281038252601d8152602001807f5472616e73616374696f6e2077616e2774207375636365737366756c2e00000081525060200191505060405180910390fd5b6001600260006101000a81548160ff02191690831515021790555050005b600080fd5b34801561033157600080fd5b5061033a610401565b604051808273ffffffffffffffffffffffffffffffffffffffff1673ffffffffffffffffffffffffffffffffffffffff16815260200191505060405180910390f35b34801561038857600080fd5b50610391610427565b6040518082815260200191505060405180910390f35b3480156103b357600080fd5b506103bc61042d565b6040518082815260200191505060405180910390f35b3480156103de57600080fd5b506103e7610433565b604051808215151515815260200191505060405180910390f35b600260019054906101000a900473ffffffffffffffffffffffffffffffffffffffff1681565b60015481565b60005481565b600260009054906101000a900460ff168156fe596f75206d757374207061792074686520657861637420616d6f757420746861742070726f6475637420636f7374732ea2646970667358221220abfe42fd74cd7df6e6e95c6bde2d4cacfbbf28baf79e13e49206d944c560412d64736f6c6343000606003350726f64756374206d75737420626520706169642066697273742c20746f2062652073656e7420666f722064656c69766572794f776e61626c653a206e6577206f776e657220697320746865207a65726f206164647265737343616e2774207075726368617365207468652070726f647563742c2070726f6475637420697320616c726561647920707572636861736564206f722073656e7420666f722064656c697665727943616e2774207075726368617365207468652070726f647563742c206e6f7420656e6f756768206d6f6e65792e596f75277265206e6f742061626c6520746f2072656e6f756e6365206f776e657273686970a2646970667358221220fbb0a77bdad18f708f03765376590eb32adbd48a040f6c891c1fc6da43c8533964736f6c63430006060033",
  "immutableReferences": {},
  "source": "// SPDX-License-Identifier: MIT\r\npragma solidity ^0.6.0.;\r\n\r\nimport \"../client/node_modules/@openzeppelin/contracts/access/Ownable.sol\";\r\nimport \"./ProductPaymentHanler.sol\";\r\n\r\n/**\r\n * @dev Contract for managing creation of new products and handling of the events.   \r\n */\r\ncontract ProductManager is Ownable{\r\n    \r\n    /// @dev Product states\r\n    enum ProductState{Created, Paid, Delivered}\r\n    \r\n    /// @dev Info we store for every product\r\n    struct Product{\r\n        string productUid;\r\n        uint price;\r\n        ProductState state;\r\n        ProductPaymentHanler paymentHandler;\r\n    }\r\n    \r\n    /// @dev Keeping track of products and their states.\r\n    mapping(uint => Product) public products;\r\n    uint public index;\r\n    \r\n    /// @dev For emiting events whenever product state has been changed.\r\n    event ProductStateChanged(uint _productIndex, uint _step, address productPaymentAddress);\r\n    \r\n    /**\r\n     * @dev Creating new product and saving it in storage.\r\n     */\r\n    function createProduct(string memory _id, uint _price) public onlyOwner {\r\n        ProductPaymentHanler paymentHandler = new ProductPaymentHanler(this, index, _price);\r\n        products[index].paymentHandler = paymentHandler;\r\n        products[index].productUid = _id;\r\n        products[index].price = _price;\r\n        products[index].state = ProductState.Created;\r\n        \r\n        emit ProductStateChanged(index, uint(products[index].state), address(products[index].paymentHandler));\r\n        index++;\r\n    }\r\n    \r\n    /**\r\n     * @dev Purchasing the product and emitting an event about it.\r\n     */\r\n    function triggerPayment(uint _productIndex) public payable{\r\n        require(products[_productIndex].price <= msg.value, \"Can't purchase the product, not enough money.\");\r\n        require(products[_productIndex].state == ProductState.Created, \"Can't purchase the product, product is already purchased or sent for delivery\");\r\n        \r\n        products[_productIndex].state = ProductState.Paid;\r\n        emit ProductStateChanged(_productIndex, uint(products[_productIndex].state), address(products[_productIndex].paymentHandler));\r\n    }\r\n    \r\n    /**\r\n     * @dev Shipping the product and emitting an event about it.\r\n     */\r\n    function triggerDelivery(uint _productIndex) public onlyOwner {\r\n        require(products[_productIndex].state == ProductState.Paid, \"Product must be paid first, to be sent for delivery\");\r\n    \r\n        products[_productIndex].state = ProductState.Delivered;\r\n        emit ProductStateChanged(_productIndex, uint(products[_productIndex].state), address(products[_productIndex].paymentHandler));\r\n    }\r\n    \r\n    /**\r\n     * @dev Withdrawing money (deposits for products' purchases) from this contract.\r\n     */\r\n    function withdraw() public onlyOwner{\r\n        msg.sender.transfer(address(this).balance);\r\n    }\r\n    \r\n    /**\r\n     * @dev Overriding renounceOwnership function from Wnable contract.\r\n     */\r\n    function renounceOwnership() public override onlyOwner {\r\n        revert(\"You're not able to renounce ownership\");\r\n    }\r\n}",
  "sourcePath": "C:\\Users\\DJKrivi\\Desktop\\Courses\\Ethereum Development Bootcamp\\2. Project - Supply chain management\\contracts\\ProductManager.sol",
  "compiler": {
    "name": "solc",
    "version": "0.6.6+commit.6c089d02.Emscripten.clang"
  },
  "schemaVersion": "3.2.3",
  "updatedAt": "2020-11-01T18:00:28.509Z",
  "networkType": "ethereum",
  "devdoc": {
    "details": "Contract for managing creation of new products and handling of the events.   ",
    "methods": {
      "createProduct(string,uint256)": {
        "details": "Creating new product and saving it in storage."
      },
      "owner()": {
        "details": "Returns the address of the current owner."
      },
      "renounceOwnership()": {
        "details": "Overriding renounceOwnership function from Wnable contract."
      },
      "transferOwnership(address)": {
        "details": "Transfers ownership of the contract to a new account (`newOwner`). Can only be called by the current owner."
      },
      "triggerDelivery(uint256)": {
        "details": "Shipping the product and emitting an event about it."
      },
      "triggerPayment(uint256)": {
        "details": "Purchasing the product and emitting an event about it."
      },
      "withdraw()": {
        "details": "Withdrawing money (deposits for products' purchases) from this contract."
      }
    }
  },
  "userdoc": {
    "methods": {}
  }
}